:0A212F000001020203030404050589
:100D3900E4F567F566F565F564C209C206C208C23D
:100D4900071215E81207927E177F008E0A8F0B751E
:100D5900121775131275081775091C751017751177
:100D69005175161775177FEE54E07003020E8075E2
:100D790068007569808E6A8F6BC374A99FFF7417A9
:100D89009ECF2402CF3400FEE48F638E62F561F5B5
:100D990060F55FF55EF55DF55CAF63AE62AD61ACC4
:100DA90060AB5FAA5EA95DA85CC3120B335026E550
:100DB90069255FF582E568355EF58374CDF0E55FF9
:100DC9002401F55FE4355EF55EE4355DF55DE435F6
:100DD9005CF55C80C4E4F55FF55EF55DF55CAF63D9
:100DE900AE62AD61AC60AB5FAA5EA95DA85CC312DF
:100DF9000B335031AE5EAF5FE56B2FF582E56A3E8E
:100E0900F583E0FDE5692FF582E5683EF583EDF0B0
:100E1900EF2401F55FE43EF55EE4355DF55DE4350B
:100E29005CF55C80B985680A85690B74002480FFCC
:100E3900741734FFFEC3E5139FF513E5129EF512EF
:100E4900C3E50D9FF50DE50C9EF50CC3E50F9FF568
:100E59000FE50E9EF50EC3E5099FF509E5089EF518
:100E690008C3E5119FF511E5109EF510C3E5179F1D
:100E7900F517E5169EF516D2E843D82090E668E006
:100E89004409F090E65CE0443DF0D2AF90E680E0A2
:100E990020E105D20A121D6890E680E054F7F0536C
:100EA9008EF8C20930070512056EC20730092912EA
:100EB90016FE5024C209121F0B20061690E682E086
:100EC90030E704E020E1EF90E682E030E604E0203C
:0D0ED900E0E4121D971221C31210EB80C738
:10056E0090E6B9E0700302061F14700302069C2485
:10057E00FE700302071F24FB70030206191470039A
:10058E000206131460731460762405600302077E5E
:10059E001221C5400302078A90E6BBE024FE6022CA
:1005AE0014603324FD601114602224067048E50A9D
:1005BE0090E6B3F0E50B8037E51290E6B3F0E51365
:1005CE00802DE50C90E6B3F0E50D8023E50E90E668
:1005DE00B3F0E50F801990E6BAE0FF121DC3AA062C
:1005EE00A9077B01EA494B600DEE90E6B3F0EF9060
:1005FE00E6B4F002078A0207831220B902078A12B4
:10060E00218B02078A121AB702078A1220A7020745
:10061E008A1221C7400302078A90E6B8E0247F6061
:10062E001514601924027063A206E43325E0FFA2BC
:10063E0008E4334F8041E490E740F0803F90E6BC01
:10064E00E0547EFF7E00E0D394807C0040047D0168
:10065E0080027D00EC4EFEED4F242FF58274213E7C
:10066E00F583E493FF3395E0FEEF24A1FFEE34E62D
:10067E008F82F583E0540190E740F0E4A3F090E61A
:10068E008AF090E68B7402F002078A020783122129
:10069E00C9400302078A90E6B8E024FE60162402E1
:1006AE00600302078A90E6BAE0B40105C2060207AB
:1006BE008A02078390E6BAE0705590E6BCE0547E5D
:1006CE00FF7E00E0D394807C0040047D0180027D9B
:1006DE0000EC4EFEED4F242FF58274213EF583E49F
:1006EE0093FF3395E0FEEF24A1FFEE34E68F82F503
:1006FE0083E054FEF090E6BCE05480131313541FB5
:10070E00FFE0540F2F90E683F0E04420F0806D80E0
:10071E00641221CB506690E6B8E024FE60192402E4
:10072E00705A90E6BAE0B40104D206804F90E6BA51
:10073E00E064026047803E90E6BCE0547EFF7E009F
:10074E00E0D394807C0040047D0180027D00EC4E5D
:10075E00FEED4F242FF58274213EF583E493FF3393
:10076E0095E0FEEF24A1FFEE34E68F82F58380083C
:10077E00120080500790E6A0E04401F090E6A0E061
:03078E004480F0B4
:010791002245
:030033000221A700
:0421A70053D8EF32E8
:1015E800758CE0758AC0E58954F04401F589758EDB
:0815F80003D28CD2A9D2AF226C
:03000B000217AB2E
:1017AB00C0E0C0F0C083C082C0D075D000C000C004
:1017BB0001C002C003C004C005C006C007758CE0A1
:1017CB00758AC0D28CE47F607EEAFDFCAB57AA56CB
:1017DB00A955A854C3120B335019AF57AE56AD557C
:1017EB00AC54EF2401F557E43EF556E43DF555E4D2
:1017FB003CF554E47F01FEFDFCAB57AA56A955A856
:10180B0054C3120B337008E5A054F02534F5A0E552
:10181B002A2401FFE43529FEE4FCFDAB57AA56A9A7
:10182B0055A854C3120B33700553A0F0C28CD007CC
:10183B00D006D005D004D003D002D001D000D0D038
:09184B00D082D083D0F0D0E0324D
:03003B00021A4F57
:101A4F00C0E0C083C082C0D075D000C006C00730D0
:101A5F00C041C2C085C114052EE52E7002052DD3DD
:101A6F00E52E94F4E52D648094814006752D007564
:101A7F002E00AE2DAF2EEE90F800F0AE2DAF2EEF64
:101A8F00A3F0AE2DAF2E74012FF58274F83EF583BF
:101A9F00E514F030C105C2C185C114D007D006D0FE
:081AAF00D0D082D083D0E032D8
:03002300021B16A7
:101B1600C0E0C083C082C0D075D000C00730983600
:101B2600C298859915052CE52C7002052BD3E52C5A
:101B3600940EE52B648094804006752B00752C006E
:101B4600AF2C90E7F0EFF0AF2C74F02FF582E43471
:101B5600E7F583E515F0D007D0D0D082D083D0E06A
:011B6600324C
:1017000012010002000000401816118300000102BF
:1017100000010A0600020000004001000902350035
:1017200001010080FA0904000005FF000000070520
:101730000102400000070582020002000705810245
:1017400040000007058602000200070508020002AB
:101750000009022E0001010080FA0904000004FFC4
:10176000000000070501024000000705820240005A
:101770000007050202000200070581024000000484
:1017800003090410035100480059002D0043004391
:101790000044001603490043003800330030003095
:0B17A0000020002000200020000000BE
:1011DE0060802800030A03030202030700000002D6
:1011EE00000002000A2B0B13111511110000000054
:1011FE000000003F02090106040301070000000081
:10120E00020002000A2B0B130B1511110000000037
:10121E000000003F032D0303030303070000000239
:10122E00000002000A2B0B13111511110000000013
:10123E000000003F030A0A0A0A0A0A070000000219
:10124E00000002000A2B130B1115111100000000F3
:10125E000000003F6024288700000000000000000E
:10126E000000000000000000000000000000000070
:10127E0000000000000000000000000047288080F1
:06128E00000011CA4E0031
:10152C0090E60174CAF090E6F574FFF0902880E024
:10153C0090E6F3F0902881E090E6C3F0902882E0EA
:10154C0090E6C1F0902883E090E6C2F0902885E008
:10155C0090E6C0F0902886E090E6F4F075AF077442
:10156C0028F59A7400F59B759DE4E4F59EFF90E6D2
:10157C007BE090E67CF00FBF80F490E67174FFF096
:10158C00F5B490E672E04480F043B680000000E4CD
:10159C0090E6C4F000000090E6C5F0902887E0903B
:1015AC00E6C6F0902888E090E6C7F0902889E09095
:1015BC00E6C8F090288AE090E6C9F090288BE0907D
:1015CC00E6CAF090288CE090E6CBF090288DE09065
:0B15DC00E6CCF090288EE090E6CDF009
:0115E70022E1
:03004300021600A2
:0300530002160092
:1016000002200D0002206A00022054000220250062
:10161000021C9600021BAA000221CD000221CE006E
:101620000221CF000221D000021BE700020B7D0047
:101630000221D1000221D200021B6700020FEE003E
:101640000221D3000221CE000221D4000221D500C4
:101650000221D6000221D7000221D8000221D900A0
:101660000221DA000221CE000221CE000221CE00AA
:101670000221DB000221DC000221DD000221DE006C
:101680000221DF000221E0000221E1000221E2004C
:101690000221E3000221E4000221E5000221E6002C
:1016A0000221E7000221E8000221E9000221EA000C
:0816B0000221EB000221EC0015
:101D970090E682E030E004E020E60B90E682E03057
:101DA700E119E030E71590E680E04401F07F147E0A
:0C1DB700001216B890E680E054FEF02206
:101F0B0090E682E044C0F090E681F0438701000048
:041F1B0000000022A0
:101D6800300A0990E680E0440AF0800790E680E0B7
:101D78004408F07FDC7E051216B890E65D74FFF02B
:0F1D880090E65FF05391EF90E680E054F7F02281
:021DC300A9076E
:101DC500AE16AF178F828E83A3E064037017AD0143
:101DD50019ED7001228F828E83E07C002FFDEC3E91
:091DE500FEAF0580DF7E007F00E7
:011DEE0022D2
:1016B8008E708F7190E600E054187012E571240165
:1016C800FFE43570C313F570EF13F571801590E6DC
:1016D80000E05418FFBF100BE57125E0F571E570C7
:1016E80033F570E5711571AE70700215704E6005B6
:0616F800121F1F80EE220C
:101F1F007400F58690FDA57C05A3E582458370F9D5
:011F2F00228F
:10129400C18202311040044300000000C100014A31
:1012A40000C105C1040450000000000147000125ED
:1012B40000043F0000000004370000000001350076
:0412C40041290B00B1
:1007920090E600E054E74410F000000000000090F2
:1007A200E61074A0F000000090E60B7401F090E6F1
:1007B2001274E0F0000000E490E613F000000090F4
:1007C200E61474E2F000000090E61574A0F0000058
:1007D2000090E6D27402F090E6047480F00000000B
:1007E2007402F00000007406F00000007408F000CB
:1007F2000000E4F000000012152C90E6187408F0D6
:1008020000000090E619F000000090E61AF00000E7
:100812000090E61BF0000000E490E671F075B4FF72
:1008220090E672F075B67F75B1FF90E670F075B222
:10083200FF75B5FFC28CD2A053A0FD12219B90E69A
:100842001074A0F000000090E611F000000090E6A5
:100852005EE04408F0000000E490E68DF000000045
:1008620090E65EE04404F0000000E490E7C0F090FF
:10087200E7C4F0A3F0A3F0A3F090E7F0F090E68FC6
:100882007440F000000090E65EE04440F00000009A
:100892007E027F0090F800E4F0A3DFFCDEFA90E62F
:1008A200987402F0000000E490E699F00000007EE7
:1008B200027F0090F800E4F0A3DFFCDEFA90E65E2F
:1008C200E04480F0000000E490E69CF0000000901C
:1008D200E69DF00000007F9AFE1221437527007505
:1008E20028B4754B01754C907531107532B8754E40
:1008F20006754F2C12219390E67AE054FEF0E4FD47
:100902007F901220CB7F647E001216B87DFF7F425B
:100912001220CB7F647E001216B87D827F4E122099
:10092200CB7536FF43B101E4F53D90E782E536F041
:1009320090E781E53DF012203DE4F52BF52C121EE7
:100942006EE4F52DF52E12219B121F977F887E13E0
:10095200121F3E121F977F887E13121F3E121F978F
:100962007F887E13121F3E1221171218547F5512D0
:100972001C237F887E13121F3ED2F9C2F8E4F5478A
:0609820090E7C0E547F01C
:01098800224C
:0E20EF00EF2401FBE43EFA7D047F48021FD57A
:1019DF00E53DC313FFC374809FF570E53DD39400BD
:1019EF0040067536FF43B101E53D700353B1FE7EEE
:1019FF00297F0C1220EF90290DE090E7C1F090297C
:101A0F000EE090E7C2F09028EBE536F07A287BEBFA
:101A1F007D017F21121FF19028EB7402F0A37480D7
:101A2F00F07A287BEB7D027F28121FF1E49028EBE0
:101A3F00F0A3E570F07A287BEB7D027F28021FF17F
:1010EB00E5532401F553E43552F552E43551F551EE
:1010FB00E43550F550E47FE87E03FDFCAB53AA5278
:10110B00A951A850C3120B33700F9028EBF07A281B
:10111B007BEB7D017F48121FF17FA07E867D017CDA
:10112B0000AB53AA52A951A850C3120B33700E1225
:10113B0019DF90E6907402F0E490E691F07F407E28
:10114B000D7D037C00AB53AA52A951A850D3120BAF
:10115B0033400CE4F553F552F551F550121F553051
:10116B00017075470190E7C0E547F0E5B130E70343
:10117B002005F890F00074AAF0A37411F0A374CCBE
:10118B00F0A374EEF0E490E690F090E6917405F025
:10119B001212C990F00074AAF0A37411F0A374CCCE
:1011AB00F0A374EEF0E490E690F090E6917405F005
:1011BB00C201E4F54790E7C0E547F0121F977F881F
:1011CB007E13121F3E121F977F887E13121F3E1233
:0311DB00211722B7
:0216FE00D322F5
:0221C300D32225
:0221C500D32223
:101AB70090E680E030E73A00000090E6207402F0FC
:101AC700000000E490E621F000000090E624740294
:101AD700F0000000E490E625F000000090E6267490
:101AE70002F0000000E490E627F0000000D2028038
:101AF70016000000E490E620F000000090E6217454
:0F1B070040F0000000C20290E6BAE0F548D32299
:1020A70090E740E548F0E490E68AF090E68B04F08C
:0220B700D32232
:08218B0090E6BAE0F526D3222C
:1020B90090E740E526F0E490E68AF090E68B04F09C
:0220C900D32220
:0221C700D32221
:0221C900D3221F
:0221CB00D3221D
:10008000E4F56CF56D90E6B9E0120B5700B1B300E2
:10009000E9B502C7B602FFBB0346BC03EFC103A725
:1000A000C2046DC5048CC604C1CA0502CB0000059C
:1000B0006AE490E68AF090E68BF090E6A0E020E11A
:1000C000F990E68BE0F56CE4F5B390E60174CAF0C4
:1000D000D20100000090E6047480F0000000740279
:1000E000F0000000E4F002056CE490E68AF090E68F
:1000F0008BF090E6A0E020E1F990E68BE0F56CD380
:10010000943F4024E4F56D7440256DF582E434E7B6
:10011000F583E0FF74AB256DF582E43428F583EFB9
:10012000F0056DE56DB440DF7F8A7E0012214390BB
:1001300028ABE0FF7E0012214C9028ABE0FF7E0050
:100140001221559028ABE0FF7E0012215E9028AC72
:10015000E075F004A4FFAEF01221679028ACE075C2
:10016000F004A4FFAEF01221709028ACE075F0040A
:10017000A4FFAEF01221799028B0E0C3940250138E
:100180009028CCE090E6C07005744EF08016749C08
:10019000F080119028CCE090E6C07005749FF0804C
:1001A00003749DF09028CEE0F53E9028CBE0F53C1E
:1001B0009028CFE0F5499028D9E0F53BA3E0FEA3D5
:1001C000E07C002400F524EC3EF5239028DEE0904E
:1001D000290BF09028B1E0F533E533700375330156
:1001E0009028B6E0FEA3E07C002400F528EC3EF564
:1001F00027A3E0FEA3E02400F54CEC3EF54B90284D
:10020000B2E0FEA3E02400F532EC3EF531A3E0FEBF
:10021000A3E02400F54FEC3EF54E9028E6E0FFE425
:10022000FDFEFBFAF97801120ACEA804A905AA0678
:10023000AB079028BCE0FEA3E07C002400FFEC3E6E
:10024000FEE4FDEB2FFFEA3EFEED39FDEC38FCC08D
:1002500004C005C006C0079028E7E0FFE4FCFDFEEF
:10026000FBFA7901F8120ACED003D002D001D000F7
:10027000EF2BF546EE3AF545ED39F544EC38F5430C
:100280009028BAE0FEA3E07C002400F530EC3EF5B7
:100290002F9028E0E0540FF535E4FD7F901220CB3D
:1002A0009028ACE0FCA3E0FDA3E0FEA3E0F5428EC5
:1002B000418D408C3FE542F542E541F541E540F591
:1002C00040E4F53F02056CE4F56D74AB256DF582F5
:1002D000E43428F583E0FF7440256DF582E434E7CB
:1002E000F583EFF0056DE56DB440DF000000E490AC
:1002F000E68AF000000090E68B7440F002056CE4A2
:1003000090E68AF090E68BF090E6A0E020E1F978A4
:10031000EB7C287D017B017AE679BC7E007F0112AF
:100320000A5990E6BEE0FF7E0078EC7C287D017BD8
:10033000017AE77940120A5990E6BAE0C313FF90B8
:10034000E6BEE0048059E490E68AF090E68BF090F7
:10035000E6A0E020E1F978EB7C287D017B017AE6DC
:1003600079BD7E007F01120A5978EC7C287D017BE3
:10037000017AE679BC7E007F01120A5990E6BEE060
:10038000FF7E0078ED7C287D017B017AE7794012C1
:100390000A5990E6BAE0C313FF90E6BEE02402FDDE
:1003A0007A287BEB02056590E7407417F0A3740A86
:1003B000F0A3740CF0A37426F0A37407F0A374EEFA
:1003C000F0A37401F0A37403F0A37453F03002059A
:1003D000E4A3F0800690E74974FFF0000000E49089
:1003E000E68AF000000090E68B740AF002056CE4E7
:1003F00090E68AF090E68BF090E6A0E020E1F9909C
:10040000E68BE0F56CC298D39400500302056C9023
:10041000E740E0940A5007E02430FF1220FD90E707
:1004200040E0B40A057F611220FD90E740E0B40B84
:10043000057F621220FD90E740E0B40C057F631257
:1004400020FD90E740E0B40D057F641220FD90E7A9
:1004500040E0B40E057F651220FD90E740E0640F98
:10046000600302056C7F661220FD02056C7AE77B53
:10047000407D047F48121FD5000000E490E68AF01A
:1004800000000090E68B7404F002056CE490E68AAC
:10049000F090E68BF090E6A0E020E1F990E68BE0AA
:1004A000F56CD39401500302056C90E741E0FD7FA9
:1004B000421220CB90E740E0FD7F4E1220CB020598
:1004C0006C90E6BCE090290CF07A297B0C7D017FD2
:1004D00050121FF17A297B0C7D017F50121FF19081
:1004E000E6BEE0FD7AE77B407F50121FD5E490E640
:1004F0008AF000000090E6BEE090E68BF00000007D
:10050000806AE490E68AF000000090E68BF000003C
:100510000090E6A0E020E1F990E6BCE0D39407402B
:100520004B78EB7C287D017B017AE679BC7E007FED
:1005300001120A5990E6BEE0FF7E0078EC7C287D2F
:10054000017B017AE77940120A5990E6BEE004FD8A
:100550007A287BEB7F50121FF190E6BEE004FD7A13
:0D056000287BEB7F50121FF18002D322C3D5
:01056D00226B
:10200D00C0E0C083C082D2075391EF90E65D7401AA
:08201D00F0D082D083D0E03244
:10205400C0E0C083C0825391EF90E65D7404F0D079
:0620640082D083D0E032BF
:10206A00C0E0C083C0825391EF90E65D7402F0D065
:06207A0082D083D0E032A9
:101C9600C0E0C083C08285100C85110D850D82853C
:101CA6000C83A37402F085080E85090F850F8285C3
:101CB6000E83A37407F05391EF90E65D7410F0D095
:061CC60082D083D0E03261
:10202500C0E0C083C082D2095391EF90E65D740889
:08203500F0D082D083D0E0322C
:101BAA00C0E0C083C08290E680E030E72085080C60
:101BBA0085090D850D82850C83A37402F085100EAC
:101BCA0085110F850F82850E83A37407F05391EF59
:0D1BDA0090E65D7420F0D082D083D0E03220
:0121CD0032DF
:0121CE0032DE
:0121CF0032DD
:0121D00032DC
:101BE700C0E0C083C08290E65EE054FBF0000000D6
:101BF70090E68F7440F0000000752B00752C009064
:101C0700E7F0E4F05391EF90E65FE04404F090E6EC
:0C1C17005EE04404F0D082D083D0E032C4
:100B7D00C0E0C0F0C083C082C0D075D000C000C03E
:0D0B8D0001C002C003C004C005C006C007BF
:100B9A0090E65EE054F7F090E6A1E020E1F990E7F4
:100BAA0080E0FF120B570BCF000BD5010BE4300C82
:100BBA0018310C5C320C9A330CCB340CF6FE0D0057
:100BCA00FF00000D05752200020D0590E782E0F591
:100BDA003690E781E0F53D020D057558007559011B
:100BEA0090E68DE0FFC3E5599F7480F865589840F8
:100BFA0003020D0574802559F582E434E7F583E094
:100C0A00FF12210A0559E55970D6055880D290E796
:100C1A0081E07006758DB2020D0590E781E0B4019E
:100C2A0006758D64020D0590E781E0B40206758DA4
:100C3A00D9020D0590E781E0B40306758DE6020D31
:100C4A000590E781E064046003020D05758DF302E7
:100C5A000D0590E781E07006121F97020D0590E7D7
:100C6A0081E0B40106121F76020D0590E781E0B417
:100C7A000206121E1A020D0590E781E0B40305125E
:100C8A001FB6807790E781E0F47070122117806BAD
:100C9A0075580075590190E68DE0FFC3E5599F74B8
:100CAA0080F8655898505474802559F582E434E7E1
:100CBA00F583E0FF1220FD0559E55970D9055880E2
:100CCA00D590E781E0F46011E024B0FF122094E4AB
:100CDA00FF1220947F1012209490E7817440F07ADA
:100CEA00E77B817D217F3C121FF1800F90E781E035
:100CFA0024FF92058005752200D20300000090E6C9
:100D0A008DE4F05391EF90E65FE04408F090E65EE0
:040D1A00E04408F0B9
:100D1E00D007D006D005D004D003D002D001D00029
:0B0D2E00D0D0D082D083D0F0D0E032D3
:0121D10032DB
:0121D20032DA
:101B6700C0E0C083C08290E65EE054BFF000000092
:101B770090E6987402F000000090E699E4F0000007
:101B870000F52DF52E90F800F0A3F05391EF90E6B5
:101B97005FE04440F090E65EE04440F0D082D083BE
:031BA700D0E03259
:100FEE00C0E0C0F0C083C082C0D075D000C000C0C9
:0D0FFE0001C002C003C004C005C006C0074A
:10100B0090E65EE0547FF090E6A6E020E1F990E6F2
:10101B009CE0FE90E69DE07C002400F559EC3EF54B
:10102B0058E55964054558704D90FC00E0B4EE143A
:10103B00A3E0B4440FA3E0B4880AA3E07006A3E0D6
:10104B0064336064755A00755B00C3E55B9559E5C5
:10105B00586480F8E55A648098504D7400255BF510
:10106B008274FC355AF583E0FF12210A055BE55BC0
:10107B0070D8055A80D4755A00755B00C3E55B9533
:10108B0059E5586480F8E55A648098501B74002524
:10109B005BF58274FC355AF583E0FF12210A055B80
:1010AB00E55B70D8055A80D400000090E69CE4F014
:1010BB0090E69DF05391EF90E65FE04480F090E670
:0510CB005EE04480F02E
:1010D000D007D006D005D004D003D002D001D00074
:0B10E000D0D0D082D083D0F0D0E0321E
:0121D30032D9
:0121D40032D8
:0121D50032D7
:0121D60032D6
:0121D70032D5
:0121D80032D4
:0121D90032D3
:0121DA0032D2
:0121DB0032D1
:0121DC0032D0
:0121DD0032CF
:0121DE0032CE
:0121DF0032CD
:0121E00032CC
:0121E10032CB
:0121E20032CA
:0121E30032C9
:0121E40032C8
:0121E50032C7
:0121E60032C6
:0121E70032C5
:0121E80032C4
:0121E90032C3
:0121EA0032C2
:0121EB0032C1
:0121EC0032C0
:06139E008F6E8C6F8D7054
:1013A400536E0753A0BF7F0A7E00121F3EE4F571FF
:1013B400F572C374029572FFE56EA807088002C334
:1013C40013D8FC30E00543A020800353A0DF7F0A3C
:1013D4007E00121F3E43A0107F0A7E00121F3E5360
:1013E400A0EF7F0A7E00121F3E0572E572700205AF
:1013F40071C39403E5716480948040B6E4F571F59B
:1014040072C374099572FFE570AE6FA80708800572
:10141400CEC313CE13D8F930E00543A02080035384
:10142400A0DF7F0A7E00121F3E43A0107F0A7E00C9
:10143400121F3E53A0EF7F0A7E00121F3E0572E585
:101444007270020571C3940AE5716480948040B19E
:1014540043A0407F0A7E00121F3E53A0BF7F0A7E36
:0414640000021F3E25
:09214300AD07AC06E4FF02139E97
:09214C00AD07AC067F0402139EEE
:09215500AD07AC067F0502139EE4
:09215E00AD07AC067F0602139EDA
:09216700AD07AC067F0102139ED6
:09217000AD07AC067F0202139ECC
:09217900AD07AC067F0302139EC2
:1020CB009028EBEDF0EFC313FF7A287BEB7D010239
:0220DB001FF1F3
:101E96009028EB7402F0A37480F07A287BEB7D0225
:101EA6007F28121FF1E49028EBF0A3F07A287BEB51
:071EB6007D027F28021FF1ED
:10209400E49028EBF0A3EFF07A287BEB7D027F3C01
:0320A400021FF127
:102080009028EB7440F0A3EFF07A287BEB7D027F81
:042090003C021FF1FE
:101854007FAE1220947F041220947F101220947F74
:10186400401220947FB01220947F811220947F80B4
:101874001220947FA11220947FA61220947FA81294
:1018840020947F3F1220947FAD1220947F8B1220EE
:10189400947F301220947FC81220947FD312209416
:1018A400E4FF1220947FD51220947F801220947F2D
:1018B400D91220947F221220947FDA1220947F027E
:1018C4001220947F8D1220947F141220947FDB12B7
:0C18D40020947F401220947FAF022094EB
:021C23008F6CC4
:101C2500E4FF1220947F10122094E4F56EE56E24F3
:101C3500B6FF122094E4FF1220947F10122094E442
:101C4500F56DAF6C122080056DE56DC3946040F2B3
:091C5500056EE56EC3940240D453
:011C5E002263
:0E1F30007FFC7E08121F3E12212B7FFC7E08D4
:101F3E00EF7803C333CE33CED8F9FFEF4E6007EF01
:071F4E001F70F81E80F52250
:0321B700C28222BF
:0321BA00D28222AC
:0321BD00C28522B6
:0321C000D28522A3
:06219B001221BA0221C06E
:101F55001221B77F027E00121F3E1221BD1221BA47
:101F65007F027E00121F3E1221C07F027E00021FEB
:011F75003E2D
:1020DD00E4FDFC121F550DBD00010CBC0DF5BDF648
:0120ED00F200
:0120EE0022CF
:0A213900121F7612211743B1402255
:0921820053B1BF121FB602211770
:0621A100121F9702211736
:1014680085423A854139854038853F37E53CB401A6
:1014780002C2A090290BE07003122139E53E6003F7
:10148800021512752201E47FE87E03FDFCAB3AAA3F
:1014980039A938A837C3120B334061E522640170BB
:1014A8005B7FDD7E031216B81219DFE53A2418F5C2
:1014B8003AE53934FCF539E53834FFF538E53734A1
:1014C800FFF537E4FFFEFDE537FC7818120B449072
:1014D800E7C4EFF0E4FFFEE538FDE4FC7810120BFA
:1014E80044A3EFF0E4FFE539FEE4FDFC7808120BB5
:1014F80044A3EFF0E53AFFA3EFF0808AE522B401B8
:1015080012AE39AF3A1216B88009752201E5226485
:101518000160FA90290BE07003122182E53CB401C6
:0415280002D2A02229
:10196C008F738E728D718C70E4FFFEFDFCAB73AACD
:10197C0072A971A870D3120B334057000000E4FF1A
:10198C00FEFDE570FC7818120B4490E6CEEFF000EB
:10199C000000E4FFFEE571FDE4FC7810120B4490AE
:1019AC00E6CFEFF0000000E4FFE572FEE4FDFC780A
:1019BC0008120B4490E6D0EFF0000000E573FF90A6
:1019CC00E6D1EFF000000075BB04000000E5BB3071
:0319DC00E7FB2204
:081C5F008C708D71AB07AA0621
:101C6700E4FDFCC3ED9571EC95705022EA90E6D047
:101C7700F0000000EB90E6D1F000000075BB050016
:0E1C87000000E5BB30E7FB0DBD00010C80D571
:011C9500222C
:101E4500AD07AC06000000ED25E0EC3390E6D0F0E0
:101E5500000000ED25E090E6D1F000000075BB0420
:091E6500000000E5BB30E7FB22A0
:1012C900C20390290BE0B40107E53570031221A18F
:1012D9001220DD75470290E7C0E547F012146875E2
:1012E900470390E7C0E547F030030302139DE4F597
:1012F9006EF56FC3E56F9528E56E9527500D121FA2
:1013090055056FE56F70EC056E80E8E53BD39400F9
:10131900400CE53BFD7C00AF32AE31121C5FD3E5DA
:10132900249400E52394004007AF24AE23121E4500
:10133900E4F56CF56DC3E56D954FE56C954E502C54
:10134900121DEFE4F56EF56FC3E56F95337480F800
:10135900656E98500D121F55056FE56F70EA056EA1
:1013690080E6056DE56D70CD056C80C9E4F56EF517
:101379006FC3E56F954CE56E954B500D121F5505E2
:101389006FE56F70EC056E80E8AF46AE45AD44ACD5
:041399004312196C76
:01139D00222D
:101DEF00000000E53225E0E5313390E6D0F0000049
:101DFF0000E53225E090E6D1F000000075BB04004D
:0B1E0F000000E5BB20E7033003F822D1
:10203D00E490E608F075C83443985053877FD2ACCE
:07204D0075CBFF75CA642288
:0D20FD00309902C2998F993099FDC2992245
:101EBD0090000020981CA3AF82AE83E4FCFD7BFA5A
:101ECD007AFFF9F8C3120B1D5004D2008004C20032
:061EDD0080E1C298AF99FC
:011EE30022DC
:101E6E00E490E608F0D28E53897F5389BF438920D0
:101E7E005389EF438E10758DB243C05043D880C244
:081E8E00C0C2C1D2AED2AF22E6
:0D210A0030C102C2C18FC130C1FDC2C1226F
:101EE40090000020C01CA3AF82AE83E4FCFD7BFA0B
:101EF4007AFFF9F8C3120B1D5004D2008004C2000B
:061F040080E1C2C0AFC184
:011F0A0022B4
:0421AB0075B00922E0
:0421AF0075B00322E2
:0421B30075B00622DB
:072124007FC47E09121F3E7B
:04212B0075B00C225D
:0D211700E4F5B07525FF90E7CBE525F0223B
:101F9700121F371221AB121F3A1221AF121F3A122A
:0F1FA70021B3121F30E4F52590E7CBE525F0229A
:101FB600121F371221B3121F3A1221AF121F3A1203
:0F1FC60021AB121F3075250390E7CBE525F022E4
:101F76001221AF7FC47E09121F3E1221AB1221240B
:101F86007FC47E09121F3E75250190E7CBE525F03B
:011F96002228
:101E1A001221AB7FC47E09121F3E1221AF7FC47EFE
:101E2A0009121F3E1221B31221247FC47E09121FF8
:0B1E3A003E75250290E7CBE525F02265
:08219300E4F51DD2E9D2AF22F0
:101CCC0090E678E020E6F9C2E990E678E04480F00E
:101CDC00EF25E090E679F090E678E030E0F990E6D8
:101CEC0078E04440F090E678E020E6F990E678E081
:061CFC0030E1D6D2E9221E
:101D3600A90790E678E020E6F9E51D702390E6789D
:101D4600E04480F0E925E090E679F08D18AF03A92C
:101D5600077519018A1A891BE4F51C751D01D32222
:021D6600C32296
:101D0200A90790E678E020E6F9E51D702590E678CF
:101D1200E04480F0E925E0440190E679F08D18AFC7
:101D220003A9077519018A1A891BE4F51C751D039D
:041D3200D322C322D3
:03004B00020EE6BC
:100EE600C0E0C083C082C085C084C086758600C04D
:100EF600D075D000C000C001C002C003C006C00744
:100F060090E678E030E206751D06020FD090E6788E
:100F1600E020E10CE51D64026006751D07020FD096
:100F2600E51D24FE605F14603624FE7003020FC1C7
:100F360024FC7003020FCD24086003020FD0AB1906
:100F4600AA1AA91BAF1C051C8F82758300120A7F83
:100F560090E679F0E51C65187070751D05806B903C
:100F6600E679E0AB19AA1AA91BAE1C8E827583001E
:100F7600120AAC751D02E5186401704E90E678E021
:100F86004420F08045E51824FEB51C0790E678E07D
:100F96004420F0E51814B51C0A90E678E04440F0C9
:100FA600751D0090E679E0AB19AA1AA91BAE1C8E36
:100FB60082758300120AAC051C800F90E678E04427
:100FC60040F0751D008003751D005391DFD007D0DA
:100FD60006D003D002D001D000D0D0D086D084D0A5
:080FE60085D082D083D0E032F7
:101FD500121D02E51D24FA600E146006240770F335
:0C1FE500D322E4F51DD322E4F51DD32225
:101FF100121D36E51D24FA600E146006240770F3E5
:0C200100D322E4F51DD322E4F51DD32208
:030000000218E003
:0C18E000787FE4F6D8FD758173021927AB
:10098900E709F608DFFA8046E709F208DFFA803E50
:1009990088828C83E709F0A3DFFA8032E309F6083D
:1009A900DFFA8078E309F208DFFA807088828C83A5
:1009B900E309F0A3DFFA806489828A83E0A3F60859
:1009C900DFFA805889828A83E0A3F208DFFA804C33
:1009D90080D280FA80C680D4806980F2803380100A
:1009E90080A680EA809A80A880DA80E280CA803373
:1009F90089828A83ECFAE493A3C8C582C8CCC583EB
:100A0900CCF0A3C8C582C8CCC583CCDFE9DEE780BA
:100A19000D89828A83E493A3F608DFF9ECFAA9F039
:100A2900EDFB2289828A83ECFAE0A3C8C582C8CC8F
:100A3900C583CCF0A3C8C582C8CCC583CCDFEADEA8
:100A4900E880DB89828A83E493A3F208DFF980CC0A
:100A590088F0EF60010E4E60C388F0ED2402B40403
:100A69000050B9F582EB2402B4040050AF232345AA
:060A790082239009D973ED
:100A7F00BB010CE58229F582E5833AF583E022502C
:100A8F0006E92582F8E622BBFE06E92582F8E22276
:0D0A9F00E58229F582E5833AF583E4932290
:100AAC00F8BB010DE58229F582E5833AF583E8F080
:100ABC00225006E92582C8F622BBFE05E92582C82C
:020ACC00F22214
:100ACE00E88FF0A4CC8BF0A42CFCE98EF0A42CFCC7
:100ADE008AF0EDA42CFCEA8EF0A4CDA8F08BF0A445
:100AEE002DCC3825F0FDE98FF0A42CCD35F0FCEBA4
:100AFE008EF0A4FEA9F0EB8FF0A4CFC5F02ECD3969
:0F0B0E00FEE43CFCEAA42DCE35F0FDE43CFC22D5
:100B1D00EB9FF5F0EA9E42F0E99D42F0EC6480C84F
:060B2D0064809845F022EF
:100B3300EB9FF5F0EA9E42F0E99D42F0E89C45F018
:010B4300228F
:100B4400E8600FECC313FCED13FDEE13FEEF13FF8F
:030B5400D8F122B3
:100B5700D083D082F8E4937012740193700DA3A32D
:100B670093F8740193F5828883E473740293686041
:060B7700EFA3A3A380DF41
:1018EC00020D39E493A3F8E493A34003F68001F2CC
:1018FC0008DFF48029E493A3F85407240CC8C333FD
:10190C00C4540F4420C8834004F456800146F6DFCB
:10191C00E4800B01020408102040809011DEE47E6C
:10192C00019360BCA3FF543F30E509541FFEE493C0
:10193C00A360010ECF54C025E060A840B8E493A387
:10194C00FAE493A3F8E493A3C8C582C8CAC583CAB2
:10195C00F0A3C8C582C8CAC583CADFE9DEE780BE6A
:0112C8000025
:00000001FF
