:0A17F60000010202030304040505CC
:100A3E00E4F55DF55CF55BF55AC211C20EC210C24B
:100A4E000F12207812084C7E187F008E0A8F0B75BD
:100A5E00121875131275081875091C751018751172
:100A6E005175141875157FEE54E07003020B8575E1
:100A7E005E00755F808E608F61C374A99FFF7418CE
:100A8E009ECF2402CF3400FEE48F598E58F557F5D1
:100A9E0056F555F554F553F552AF59AE58AD57AC12
:100AAE0056AB55AA54A953A852C3120CDE5026E5D4
:100ABE005F2555F582E55E3554F58374CDF0E55529
:100ACE002401F555E43554F554E43553F553E43526
:100ADE0052F55280C4E4F555F554F553F552AF591D
:100AEE00AE58AD57AC56AB55AA54A953A852C31223
:100AFE000CDE5031AE54AF55E5612FF582E5603E08
:100B0E00F583E0FDE55F2FF582E55E3EF583EDF0C2
:100B1E00EF2401F555E43EF554E43553F553E43531
:100B2E0052F55280B9855E0A855F0B74002480FFF2
:100B3E00741834FFFEC3E5139FF513E5129EF512EC
:100B4E00C3E50D9FF50DE50C9EF50CC3E50F9FF566
:100B5E000FE50E9EF50EC3E5099FF509E5089EF516
:100B6E0008C3E5119FF511E5109EF510C3E5159F1D
:100B7E00F515E5149EF514D2E843D82090E668E00A
:100B8E004409F090E65CE0443DF0D2AFD288D28AC0
:100B9E00C2A8C2AA43E808D2FB90E680E020E10595
:100BAE00D212121E6390E680E054F7F0538EF8C214
:100BBE0011300F0512040CC20F3011291221C4502E
:100BCE0024C211121FE3200E1690E682E030E704D5
:100BDE00E020E1EF90E682E030E604E020E0E4126F
:0A0BEE001E921221C612108880C763
:10040C0090E6B9E070030204BD14700302053A24AF
:10041C00FE70030205BD24FB70030204B7147003C5
:10042C000204B11460731460762405600302061C88
:10043C001221C8400302062890E6BBE024FE60228D
:10044C0014603324FD601114602224067048E50A00
:10045C0090E6B3F0E50B8037E51290E6B3F0E513C8
:10046C00802DE50C90E6B3F0E50D8023E50E90E6CB
:10047C00B3F0E50F801990E6BAE0FF121EBEAA0693
:10048C00A9077B01EA494B600DEE90E6B3F0EF90C3
:10049C00E6B4F00206280206211220FE02062812FB
:1004AC0021AF020628121B540206281220EC020669
:1004BC00281221CA400302062890E6B8E0247F6087
:1004CC001514601924027063A20EE43325E0FFA218
:1004DC0010E4334F8041E490E740F0803F90E6BC5D
:1004EC00E0547EFF7E00E0D394807C0040047D01CC
:1004FC0080027D00EC4EFEED4F24F6F58274173E23
:10050C00F583E493FF3395E0FEEF24A1FFEE34E690
:10051C008F82F583E0540190E740F0E4A3F090E67D
:10052C008AF090E68B7402F0020628020621122152
:10053C00CC400302062890E6B8E024FE60162402A4
:10054C00600302062890E6BAE0B40105C20E02066A
:10055C002802062190E6BAE0705590E6BCE0547E85
:10056C00FF7E00E0D394807C0040047D0180027DFE
:10057C0000EC4EFEED4F24F6F58274173EF583E445
:10058C0093FF3395E0FEEF24A1FFEE34E68F82F566
:10059C0083E054FEF090E6BCE05480131313541F18
:1005AC00FFE0540F2F90E683F0E04420F0806D8044
:1005BC00641221CE506690E6B8E024FE6019240245
:1005CC00705A90E6BAE0B40104D20E804F90E6BAAD
:1005DC00E064026047803E90E6BCE0547EFF7E0003
:1005EC00E0D394807C0040047D0180027D00EC4EC1
:1005FC00FEED4F24F6F58274173EF583E493FF333A
:10060C0095E0FEEF24A1FFEE34E68F82F58380089F
:10061C00120080500790E6A0E04401F090E6A0E0C4
:03062C004480F017
:01062F0022A8
:030033000215FCB7
:0415FC0053D8EF329F
:10207800758CE0758AC0E58954F04401F589758E40
:0820880003D28CD2A9D2AF22D1
:03005B00020D6330
:0D0D6300C0E0C083C082C0D075D000C007C2
:100D7000AF91530780EF64806003020E6B53917F45
:100D8000300C03020E69E54864017043D3E53894E2
:100D9000C8E53794005003020E69902473E547F0CC
:100DA000D394C8E5469400401DD3E5479440E546FA
:100DB00094065012E53894B8E537940B5008752B1B
:100DC00001754800D202853746853847020E63E533
:100DD0004864027061C3E53894C8E5379400404820
:100DE000D3E53894C8E53794004010D3E53894DC57
:100DF000E53794055005752B008027D3E53894DC42
:100E0000E5379405400FD3E5389468E537941050E2
:100E100004052B800DD3E5389468E537941040081D
:100E2000052B753700753800E52B652C703BF548B0
:100E3000F537F5388033E548B4022ED3E538940110
:100E4000E5379400402374722534F582E43424F5A8
:100E500083E538F00534052BE52BB41406754800FE
:0B0E6000752B00753700753800C20CC0
:0B0E6B00D007D0D0D082D083D0E0327E
:1018000012010002000000401816238300000102AC
:1018100000010A0600020000004001000902350034
:1018200001010080FA0904000005FF00000007051F
:101830000102400000070582020002000705810244
:1018400040000007058602000200070508020002AA
:101850000009022E0001010080FA0904000004FFC3
:101860000000000705010240000007058202400059
:101870000007050202000200070581024000000483
:1018800003090410035100480059002D0043004390
:10189000004400160351004800590039003000414F
:0B18A0000020002000200020000000BD
:100630006080256C030A010101020107000000022D
:10064000000002000A2B0B13111515110000000009
:100650000000003F030F0201010301070000000238
:10066000000002000A2B130B1115111100000000ED
:100670000000003F03140101010201070000000215
:10068000000002000A2B0B131115151100000000C9
:100690000000003F031402010105020700000002F0
:1006A000000002000A2B130B1115151100000000A9
:1006B0000000003F602425F300000000000000005F
:1006C000000000000000000000000000000000002A
:1006D0000000000000000000000000004725EC8042
:0606E000000011CA4E00EB
:1015210090E60174CAF090E6F574FFF09025ECE0C6
:1015310090E6F3F09025EDE090E6C3F09025EEE023
:1015410090E6C1F09025EFE090E6C2F09025F1E041
:1015510090E6C0F09025F2E090E6F4F075AF0774E4
:1015610025F59A746CF59B759DE4E4F59EFF90E674
:101571007BE090E67CF00FBF80F490E67174FFF0A1
:10158100F5B490E672E04480F043B680000000E4D8
:1015910090E6C4F000000090E6C5F09025F3E090DD
:1015A100E6C6F09025F4E090E6C7F09025F5E090CE
:1015B100E6C8F09025F6E090E6C9F09025F7E090B6
:1015C100E6CAF09025F8E090E6CBF09025F9E0909E
:0B15D100E6CCF09025FAE090E6CDF0AB
:0115DC0022EC
:03004300021600A2
:0300530002160092
:10160000022090000220D6000220C0000220A80084
:10161000021D6000021CEC000221D0000221D1005A
:101620000221D2000221D300021E320002128D00DC
:101630000221D4000221D500021CAD00021BB30020
:101640000221D6000221D1000221D7000221D800B8
:101650000221D9000221DA000221DB000221DC0094
:101660000221DD000221D1000221D1000221D1009E
:101670000221DE000221DF000221E0000221E10060
:101680000221E2000221E3000221E4000221E50040
:101690000221E6000221E7000221E8000221E90020
:1016A0000221EA000221EB000221EC000221ED0000
:0816B0000221EE000221EF000F
:101E920090E682E030E004E020E60B90E682E0305B
:101EA200E119E030E71590E680E04401F07F147E0E
:0C1EB20000121C6790E680E054FEF02255
:101FE30090E682E044C0F090E681F0438701000070
:041FF30000000022C8
:101E630030120990E680E0440AF0800790E680E0B3
:101E73004408F07FDC7E05121C6790E65D74FFF07A
:0F1E830090E65FF05391EF90E680E054F7F02285
:021EBE00A90772
:101EC000AE14AF158F828E83A3E064037017AD014B
:101ED00019ED7001228F828E83E07C002FFDEC3E95
:091EE000FEAF0580DF7E007F00EB
:011EE90022D6
:101C67008E668F6790E600E054187012E5672401CE
:101C7700FFE43566C313F566EF13F567801590E645
:101C870000E05418FFBF100BE56725E0F567E56630
:101C970033F566E5671567AE66700215664E600533
:061CA700121FF780EE227F
:101FF7007400F58690FDA57C05A3E582458370F9FD
:0120070022B6
:1006E60060A524C5182442424242424242241810C0
:1006F6007010101010101010107C3C42424204047E
:10070600081020427E3C4242041804020242443849
:10071600040C14242444447E04041E7E40404058A5
:100726006402024244381C24404058644242422437
:10073600187E444408081010101010103C42424223
:100746002418244242423C1824424242261A0202FB
:10075600243800000000007F0000000000384482BA
:1007660082828282B2CA4C38E7424242427E42428A
:100776004242E7EE4444282810101010103810109A
:10078600182828243C444242E7C18342256A0000D7
:100796004224B200004224B4000041241000412447
:1007A60011004124BB0002301040C100C108C10540
:1007B6000143000126004424C1000000004424B780
:1007C600000000000136004124B60060402472009B
:1007D6000000000000000000000000000000000013
:1007E6000000000000000000000000000000000003
:1007F60000000000000000000000000000000000F3
:1008060000000000000000000000000000000001E1
:100816003400014801012CFF012B000237000002C1
:10082600460000014500014F00024D00000232C3A0
:1008360050012A19C10AC18CC102C10B013B00013A
:050846003900012F0044
:101EEA008F629024527403F0E4A3F07A247B527D2B
:101EFA00027F411220419024527401F0A3E562F05E
:0B1F0A007A247B527D027F41022041BF
:0B217E00C2B6C2B48FB1D2B4D2B622F8
:0B218900D2B6C2B48FB1D2B4D2B622DD
:04205D00AE05AD0718
:10206100E4FCE4FBAF05122189AF061221890BBB09
:0620710060F20CBC40EC23
:012077002246
:101F4000AE05AD077F1512217EAF0612217E7F5FA1
:101F500012217E7F7512217EAF0512217E7F3F12F6
:0A1F6000217E7F25122189022189CC
:041926007D027F308F
:02192A00AE030A
:10192C00EDC454F0F562EE75F008A4F563BF2D0418
:10193C007A0A8020BF51047A0B8019BF48047A0CB4
:10194C008012BF59047A0D800BBF41047A0E8004BB
:10195C00EF24D0FAE4FBEA75F00BA424C5F582E47D
:10196C003424F583E5822BF582E43583F583E0F9A5
:10197C00E4FCE930E70DE56224032BFFE5632CFD65
:0F198C00121F40E925E0F90CBC08E70BBB0BC7A5
:01199B002229
:10145E00C2B77FC87E00121B3DD2B77FAE12217E6F
:10146E007FA012217E7F7212217E7FA112217EE447
:10147E00FF12217E7FA212217EFF12217E7FA412F7
:10148E00217E7FA812217E7F3F12217E7FAD122109
:10149E007E7F8E12217E7FB012217E7F0B12217EE7
:1014AE007FB112217E7F3112217E7FB312217E7F8A
:1014BE00F012217E7F8A12217E7F6412217E7F8B25
:1014CE0012217E7F7812217E7F8C12217E7F641204
:1014DE00217E7FBB12217E7F3A12217E7FBE12219A
:1014EE007E7F3E12217E7F8712217E7F0612217E15
:1014FE007F8112217E7F9112217E7F8212217E7F3B
:10150E005012217E7F8312217E7F7D12217E7FAF3E
:03151E0002217E29
:1018AB0012145EE4FDFF12205D7B037D017F51125C
:1018BB00192A7B047D017F4812192A7B057D017F44
:1018CB005912192A7B067D017F3912192A7B077D54
:1018DB00017F3012192A7B087D017F4112192A7B67
:1018EB00027D027F3212192A7B031219267B047D9B
:1018FB00027F2D12192A7B051219267B067D027F8A
:10190B003112192A7B077D027F2D12192A7B0812AF
:0B191B0019267B097D027F3702192A84
:10084C0090E600E054E74410F00000000000009037
:10085C00E61074A0F000000090E60B7401F090E636
:10086C001274E0F0000000E490E613F00000009039
:10087C00E61474E2F000000090E61574A0F000009D
:10088C000090E6D27402F090E6047480F000000050
:10089C007402F00000007406F00000007408F00010
:1008AC000000E4F000000012152190E6187408F026
:1008BC0000000090E619F000000090E61AF000002D
:1008CC000090E61BF0000000E490E671F075B47F38
:1008DC0075A07F90E672F075B6FF75B1FF90E6706B
:1008EC00F075B2FF75B5FFC28CD2B01221BF90E685
:1008FC001074A0F000000090E611F000000090E6EB
:10090C005EE04408F0000000E490E68DF00000008A
:10091C0090E65EE04404F0000000E490E7C0F09044
:10092C00E7C4F0A3F0A3F0A3F090E7F0F090E68F0B
:10093C007440F000000090E65EE04440F0000000DF
:10094C007E027F0090F800E4F0A3DFFCDEFA90E674
:10095C00987402F0000000E490E699F00000007E2C
:10096C00027F0090F800E4F0A3DFFCDEFA90E65E74
:10097C00E04480F0000000E490E69CF00000009061
:10098C00E69DF00000007F9AFE12219475280075F8
:10099C0029B4754901754A907530107531B8754B8D
:1009AC0006754C2C1221B790E67AE054FEF0E4FD6B
:1009BC007F901221107F647E00121C677DFF7F42A6
:1009CC001221107F647E00121C677D827F4E1221E3
:1009DC0010753AFF43A020E4F53E90E782E53AF02B
:1009EC0090E781E53EF01221BFD20C7548017532BB
:1009FC0027753310752A05121A0F7F887E13121B68
:100A0C003D121A0F7FB87E0B121B3D7F887E13128E
:100A1C001B3D12145E7DFFE4FF12205DD2F9C2F87B
:100A2C00E4F54390E7C0E543F043A01053917F02F7
:020A3C0018ABF5
:0E215600EF2401FBE43EFA7D047F48022025C1
:101F6A00E53EC313FFC374809F90256BF0E4940091
:101F7A0090256AF0E53ED394004006753AFF43A0E7
:091F8A0020E53E700353A0DF22A4
:10137900E4FC9024BDE0FEA3E02400FDEC3EFC90DB
:101389002410E0FEA3E07A002400FFEA3EFEC3ED4C
:101399009FFFEC9EFE9024B2F0A3EFF09024B5E0FD
:1013A9002FF09024B4E03EF0D3EF9450EE64809493
:1013B9008050129024B2E0FAA3E0FBC394B0EA642F
:1013C90080947F501C9024B3E025E0FE9024B2E085
:1013D9003390256AF0A3CEF0E49024B4F0A3F08012
:1013E900337C007D14AF03AE02120C47AC06AD0787
:1013F9009024B4E0FEA3E07802C333CE33CED8F90B
:101409002DFFEC3EFE7C007D0A120C5990256AEEF8
:10141900F0A3EFF0D390256BE094FF90256AE06488
:101429008094804006E4F0A374FFF0C390256AE03D
:10143900648094805004E4F0A3F090256AE0FEA350
:10144900E0FF7C007D02120C59C3747F9FF0E49E7B
:0414590090256AF080
:01145D00226C
:101A81007E247FBC1221569024BDE090E7C1F090E6
:101A910024BEE090E7C2F090256BE090E7C3F090A0
:101AA10024BBE0600B43A020753AFF121379800339
:101AB100121F6A902452E53AF07A247B527D017F0D
:101AC100211220419024527402F0A37480F07A24F0
:101AD1007B527D027F28122041E4902452F0902510
:101AE1006BE0902453F07A247B527D027F28022000
:011AF10041B3
:10108800054EE54E7002054D0545054FB5330DE596
:101098004DB53208121A81E4F54DF54E90E7C8E5D2
:1010A80048F0A3E52BF0A3E539F0E545B52A20E59E
:1010B80048601124FE6008047012122134800D1259
:1010C80021468008E4FF121EEA53A0EFE4F545200C
:1010D800010302118D75430190E7C0E543F0E5A0D7
:1010E80030E7032008F87FAE12217E90F00074AA42
:1010F800F0A37411F0A374CCF0A374EEF0E490E6BE
:1011080090F090E6917405F012118E90F00074AA98
:10111800F0A37411F0A374CCF0A374EEF0E490E69D
:1011280090F090E6917405F07FAF12217EC201E441
:10113800F54390E7C0E543F09024B6E06401702AD7
:10114800E536702653A0F043A0047FD07E07121B1B
:101158003D53A0F043A00C7FD07E07121B3D53A047
:10116800F043A0087FD07E078018121A0F7FB87E40
:101178000B121B3D121A0F7F887E13121B3D7F88AE
:061188007E13121B3D2244
:0221C400D32224
:0221C600D32222
:0221C800D32220
:101B540090E680E030E73A00000090E6207402F05E
:101B6400000000E490E621F000000090E6247402F6
:101B7400F0000000E490E625F000000090E62674F2
:101B840002F0000000E490E627F0000000D2038099
:101B940016000000E490E620F000000090E62174B6
:0F1BA40040F0000000C20390E6BAE0F544D322FF
:1020EC0090E740E544F0E490E68AF090E68B04F04B
:0220FC00D322ED
:0821AF0090E6BAE0F527D32207
:1020FE0090E740E527F0E490E68AF090E68B04F056
:02210E00D322DA
:0221CA00D3221E
:0221CC00D3221C
:0221CE00D3221A
:10008000E4FFF562F56390E6B9E0244B605924F390
:1000900070030202A024F870030202E824FA70033D
:1000A00002032624FE70030203AC241F6003020433
:1000B00008E490E68AF090E68BF090E6A0E020E17C
:1000C000F990E68BE0E4F5B390E60174CAF0D20152
:1000D00000000090E6047480F00000007402F0005C
:1000E0000000E4F002040AE490E68AF090E68BF067
:1000F00090E6A0E020E1F990E68BE0D3943F402425
:10010000E4F56274402562F582E434E7F583E0FFAC
:1001100074122562F582E43424F583EFF00562E57C
:1001200062B440DF7F8A7E00122194902412E0FFA7
:100130007E0012219D902413E075F004A4FFAEF020
:100140001221A6902417E0C394025013902433E0A8
:1001500090E6C07005744EF08016749CF08011908B
:100160002433E090E6C07005749FF08003749DF026
:10017000902435E024FF9207902432E024FF920679
:10018000902436E024FF9209902440E0753C00F56D
:100190003DA3E0FEA3E07C002400F525EC3EF52421
:1001A000902445E09024B6F0902418E0F535E5352C
:1001B000700375350190241DE0FEA3E07C0024004F
:1001C000F529EC3EF528A3E0FEA3E02400F54AEC77
:1001D0003EF549902419E0FEA3E02400F531EC3E01
:1001E000F530A3E0FEA3E02400F54CEC3EF54B9087
:1001F000244DE0FFE4FDFEFBFAF97801120C8FA814
:1002000004A905AA06AB07902423E0FEA3E07C0026
:100210002400FFEC3EFEE4FDEB2FFFEA3EFEED394D
:10022000FDEC38FCC004C005C006C00790244EE0B9
:10023000FFE4FCFDFEFBFA7901F8120C8FD003D02D
:1002400002D001D000EF2BF542EE3AF541ED39F541
:1002500040EC38F53F902421E0FEA3E07C00240030
:10026000F52EEC3EF52D902447E0540FF536E4FDD5
:100270007F90122110902413E0FCA3E0FDA3E0FE88
:10028000A3E0FF9024C1120D029024C1A3E0FDA3BE
:10029000E0FEA3E0FFE4FC9024C1120D0202040A78
:1002A00090E7407441F0A37407F0A3740CF0A374BA
:1002B00026F0A37407F0A374EEF0A37401F0A37406
:1002C00003F0A37453F0300305E4A3F0800690E735
:1002D0004974FFF0000000E490E68AF0000000900E
:1002E000E68B740AF002040A90E6BCE0902617F050
:1002F0007A267B177D017F501220417A267B177D5D
:10030000017F5012204190E6BEE0FD7AE77B407FFE
:1003100050122025E490E68AF000000090E6BEE04E
:1003200090E68B020402E490E68AF090E68BF0906F
:10033000E6A0E020E1F990E68BE0F562C29890E754
:1003400040E0C394304006E0D39436400790E74045
:10035000E0F47044E548704043A01090E740E0F4BA
:10036000600AE0B43010E52B6401600AD20C7548D5
:1003700001C20A02040A90E740E0C394315003022C
:10038000040AE0D39436400302040AE024D1F52C99
:10039000652B6076C20B800F90E740E06420706AA6
:1003A000E548706643A010754802805EE4F5630579
:1003B00063E563C3940A503AE563C313FD2472F501
:1003C00082E43424F58374402563F582E434E7F550
:1003D00083E4F074722DF582E43424F583E0FF7435
:1003E000412563F582E434E7F583EFF005630563A7
:1003F00080BF000000E490E68AF000000090E68BE9
:0B0400007428F00000008002D322C32B
:01040B0022CE
:10209000C0E0C083C082D20F5391EF90E65D74011F
:0820A000F0D082D083D0E032C1
:1020C000C0E0C083C0825391EF90E65D7404F0D00D
:0620D00082D083D0E03253
:1020D600C0E0C083C0825391EF90E65D7402F0D0F9
:0620E60082D083D0E0323D
:101D6000C0E0C083C08285100C85110D850D828571
:101D70000C83A37402F085080E85090F850F8285F8
:101D80000E83A37407F05391EF90E65D7410F0D0CA
:061D900082D083D0E03296
:1020A800C0E0C083C082D2115391EF90E65D7408FE
:0820B800F0D082D083D0E032A9
:101CEC00C0E0C083C08290E680E030E72085080C1D
:101CFC0085090D850D82850C83A37402F085100E69
:101D0C0085110F850F82850E83A37407F05391EF15
:0D1D1C0090E65D7420F0D082D083D0E032DC
:0121D00032DC
:0121D10032DB
:0121D20032DA
:0121D30032D9
:101E3200C0E0C083C08290E65EE054FBF000000088
:101E420090E68F7440F00000005391EF90E65FE05F
:101E52004404F090E65EE04404F0D082D083D0E007
:011E6200324D
:10128D00C0E0C0F0C083C082C0D075D000C000C027
:0D129D0001C002C003C004C005C006C007A8
:1012AA0075500075510090E65EE054F7F090E6A1A3
:1012BA00E020E1F990E780E0FF146016146026242C
:1012CA00D0603A2434606514606C14706E75230023
:1012DA00806990E782E0F53A90E781E0F53E902454
:1012EA00BBE4F0805690E782E0902410F090E7810A
:1012FA00E0902411F09024BB7401F0803E90E781C5
:10130A00E07005121A0F803390E781E0B4010512EC
:10131A0015DD802790E781E0B40305122171801B57
:10132A0090E781E0B4FF14122164800F90E781E016
:10133A0024FF92088005752300D20400000090E67D
:10134A008DE4F05391EF90E65FE04408F090E65E9A
:04135A00E04408F073
:10135E00D007D006D005D004D003D002D001D000E3
:0B136E00D0D0D082D083D0F0D0E0328D
:0121D40032D8
:0121D50032D7
:101CAD00C0E0C083C08290E65EE054BFF00000004B
:101CBD0090E6987402F000000090E699E4F00000C0
:101CCD000090F800F0A3F05391EF90E65FE04440F0
:0F1CDD00F090E65EE04440F0D082D083D0E03259
:0F1BB300C0E0C083C082C0D075D000C004C0069F
:101BC20090E65EE0547FF090E6A6E020E1F990E630
:101BD2009CE0FE90E69DE07C002400F551EC3EF591
:101BE2005000000090E69CE4F090E69DF05391EFE7
:0E1BF20090E65FE04480F090E65EE04480F014
:0D1C0000D006D004D0D0D082D083D0E03206
:0121D60032D6
:0121D70032D5
:0121D80032D4
:0121D90032D3
:0121DA0032D2
:0121DB0032D1
:0121DC0032D0
:0121DD0032CF
:0121DE0032CE
:0121DF0032CD
:0121E00032CC
:0121E10032CB
:0121E20032CA
:0121E30032C9
:0121E40032C8
:0121E50032C7
:0121E60032C6
:0121E70032C5
:0121E80032C4
:0121E90032C3
:0121EA0032C2
:0121EB0032C1
:0121EC0032C0
:0121ED0032BF
:0121EE0032BE
:0121EF0032BD
:0616B8008F648C658D6655
:1016BE0053640753B0F77F0A7E00121B3DE4F567B3
:1016CE00C374029567FFE564A807088002C313D8A8
:1016DE00FC30E00543800280035380FD7F0A7E00CC
:1016EE00121B3D4380017F0A7E00121B3D5380FE7C
:1016FE007F0A7E00121B3D0567E567C3940340C059
:10170E00E4F567C374099567FFE566AE65A807083B
:10171E008005CEC313CE13D8F930E0054380028086
:10172E00035380FD7F0A7E00121B3D4380017F0A1A
:10173E007E00121B3D5380FE7F0A7E00121B3D056C
:10174E0067E567C3940A40BB43B0087F0A7E001268
:0C175E001B3D53B0F77F0A7E00021B3DCC
:09219400AD07AC06E4FF0216B829
:09219D00AD07AC067F040216B880
:0921A600AD07AC067F010216B87A
:10211000902452EDF0EFC313FF7A247B527D01022D
:0221200020415C
:101AF20053A0F043A0087FC47E09121B3D53A0F0FF
:101B020043A00C7FC47E09121B3D53A0F043A004E6
:101B12007FC47E09121B3D53A0F043A0067FC47E02
:101B220009121B3D53A0F043A0027FC47E09121B81
:0B1B32003D53A0F043A0037FC47E09D8
:101B3D00EF7803C333CE33CED8F9FFEF4E6007EF06
:071B4D001F70F81E80F52255
:0521BF00D283D284224E
:10200800C2837F027E00121B3DC284D2837F027E80
:0D20180000121B3DD2847F027E00021B3DA2
:10212200E4FDFC1220080DBD00010CBC0DF5BDF64E
:01213200F2BA
:012133002289
:101FBC0053A0F043A0047FD07E07121B3D53A0F02A
:101FCC0043A00C7FD07E07121B3D53A0F043A0080A
:071FDC007FD07E07021B3DD0
:100E76009024C1E0FCA3E0FDA3E0FEA3E0FF9024E4
:100E8600B7120D02300605C2B043A0409024B6E06A
:100E960070031215DD300703020F65752301E47F29
:100EA600E87E03FDFC9024B7E0F8A3E0F9A3E0FA9E
:100EB600A3E0FBC3120CDE5003020F53E5236401CB
:100EC6006003020F537FDD7E03121C67121A8190A6
:100ED60024B7E0FCA3E0FDA3E0FEA3E02418FFEEA8
:100EE60034FCFEED34FFFDEC34FFFC9024B7120D0C
:100EF600029024B7E0FCA3A3A3E4FFFEFDEC781860
:100F0600120CEF90E7C4EFF09024B7A3E0FDA3A383
:100F1600E4FFFEE4FC7810120CEF90E7C5EFF090CA
:100F260024B7A3A3E0FEA3E4FFE4FDFC7808120CBB
:100F3600EF90E7C6EFF09024B7E0FCA3E0FDA3E056
:100F4600FEA3E0FFE490E7C7EFF0020EA4E523B4AA
:100F560001169024B9E0FEA3E0FF121C6780097514
:100F66002301E523640160FA9024B6E070031221A0
:0A0F760071300605D2B053A0BF226F
:10199C008F698E688D678C66E4FFFEFDFCAB69AACF
:1019AC0068A967A866D3120CDE4057000000E4FF5C
:1019BC00FEFDE566FC7818120CEF90E6CEEFF00019
:1019CC000000E4FFFEE567FDE4FC7810120CEF90DC
:1019DC00E6CFEFF0000000E4FFE568FEE4FDFC78E4
:1019EC0008120CEF90E6D0EFF0000000E569FF90D4
:1019FC00E6D1EFF000000075BB04000000E5BB3041
:031A0C00E7FB22D3
:081D29008C668D67AB07AA066A
:101D3100E4FDFCC3ED9567EC95665022EA90E6D090
:101D4100F0000000EB90E6D1F000000075BB05004B
:0E1D51000000E5BB30E7FB0DBD00010C80D5A6
:011D5F002261
:101F9300AD07AC06000000ED25E0EC3390E6D0F091
:101FA300000000ED25E090E6D1F000000075BB04D1
:091FB300000000E5BB30E7FB2251
:10118E00C20453A0F043A0047FD07E07121B3D5330
:10119E00A0F043A00C7FD07E07121B3D53A0F0435E
:1011AE00A0087FD07E07121B3D9024B6E0B4010745
:1011BE00E5367003121FBC12212275430290E7C060
:1011CE00E543F0120E7675430390E7C0E543F03029
:1011DE00040302128CE4F564F565C3E5659529E513
:1011EE00649528500D1220080565E56570EC0564C0
:1011FE0080E8D3E53D9400E53C9400400BAD3DAC5A
:10120E003CAF31AE30121D29D3E5259400E5249470
:10121E00004007AF25AE24121F93E4F562F563C3B9
:10122E00E563954CE562954B502C121F15E4F56461
:10123E00F565C3E56595357480F8656498500D12B3
:10124E0020080565E56570EA056480E60563E563DB
:10125E0070CD056280C9E4F564F565C3E565954A10
:10126E00E5649549500D1220080565E56570EC059D
:0E127E006480E8AF42AE41AD40AC3F12199C17
:01128C00223F
:101F1500000000E53125E0E5303390E6D0F0000023
:101F250000E53125E090E6D1F000000075BB040026
:0B1F35000000E5BB20E7033004F822A9
:0D21640053A0F07526FF90E7CBE526F02292
:101A0F0053A0F043A0097F287E0A121B3D53A0F07C
:101A1F0043A0017F287E0A121B3D53A0F043A00371
:101A2F007F287E0A121B3D53A0F043A0027F287E21
:101A3F000A121B3D53A0F043A0067F287E0A121BFB
:101A4F003D53A0F043A0047F287E0A121B3D53A0F4
:101A5F00F043A00C7F287E0A121B3D53A0F043A039
:101A6F00087F287E0A121B3DE4F52690E7CBE5267A
:021A7F00F02253
:0D217100121AF275260390E7CBE526F02246
:1015DD00121AF253A0F043A001121B3953A0F0438D
:0F15ED00A009121B3975260190E7CBE526F022E5
:101C0D00052FE52FB40803E4F52FE52F70047F08A9
:101C1D00803DE52FB401047F0A8034E52FB4020422
:101C2D007F02802BE52FB403047F038022E52FB4C0
:101C3D0004047F018019E52FB405047F058010E5AC
:101C4D002FB406047F048007E52FB4070C7F0C1218
:0A1C5D001EEA7F2D7E00121B3D22BF
:10213400C202E548600B121C0D0538E53870020533
:02214400372240
:10214600E548600B0538E53870020537121C0D228C
:0821B700E4F51BD2E9D2AF22CE
:101D960090E678E020E6F9C2E990E678E04480F043
:101DA600EF25E090E679F090E678E030E0F990E60D
:101DB60078E04440F090E678E020E6F990E678E0B6
:061DC60030E1D6D2E92253
:101E0000A90790E678E020E6F9E51B702390E678D4
:101E1000E04480F0E925E090E679F08D16AF03A963
:101E2000077517018A188919E4F51A751B01D32261
:021E3000C322CB
:101DCC00A90790E678E020E6F9E51B702590E67807
:101DDC00E04480F0E925E0440190E679F08D16AFFF
:101DEC0003A9077517018A188919E4F51A751B03DD
:041DFC00D322C32209
:03004B00020F8021
:100F8000C0E0C083C082C085C084C086758600C0B2
:100F9000D075D000C000C001C002C003C006C007A9
:100FA00090E678E030E206751B0602106A90E6785B
:100FB000E020E10CE51B64026006751B0702106A65
:100FC000E51B24FE605F14603624FE700302105B94
:100FD00024FC70030210672408600302106AAB1738
:100FE000AA18A919AF1A051A8F82758300120BF877
:100FF00090E679F0E51A65167070751B05806B90A8
:10100000E679E0AB17AA18A919AE1A8E827583008B
:10101000120C25751B02E5166401704E90E678E00F
:101020004420F08045E51624FEB51A0790E678E0E6
:101030004420F0E51614B51A0A90E678E04440F032
:10104000751B0090E679E0AB17AA18A919AE1A8EA5
:1010500082758300120C25051A800F90E678E04413
:1010600040F0751B008003751B005391DFD007D043
:1010700006D003D002D001D000D0D0D086D084D00A
:0810800085D082D083D0E0325C
:10202500121DCCE51B24FA600E146006240770F31C
:0C203500D322E4F51BD322E4F51BD322D8
:10204100121E00E51B24FA600E146006240770F3CB
:0C205100D322E4F51BD322E4F51BD322BC
:0300000002176A7A
:0C176A00787FE4F6D8FD7581690217B1A4
:100BF800BB010CE58229F582E5833AF583E02250B2
:100C080006E92582F8E622BBFE06E92582F8E222FB
:0D0C1800E58229F582E5833AF583E4932215
:100C2500F8BB010DE58229F582E5833AF583E8F005
:100C3500225006E92582C8F622BBFE05E92582C8B1
:020C4500F22299
:100C4700EF8DF0A4A8F0CF8CF0A428CE8DF0A42EC1
:020C5700FE227B
:100C5900C2D5EC30E709B2D5E4C39DFDE49CFCEEB6
:100C690030E715B2D5E4C39FFFE49EFE120D0EC313
:100C7900E49DFDE49CFC8003120D0E30D507C3E40E
:060C89009FFFE49EFE2225
:100C8F00E88FF0A4CC8BF0A42CFCE98EF0A42CFC04
:100C9F008AF0EDA42CFCEA8EF0A4CDA8F08BF0A482
:100CAF002DCC3825F0FDE98FF0A42CCD35F0FCEBE1
:100CBF008EF0A4FEA9F0EB8FF0A4CFC5F02ECD39A6
:0F0CCF00FEE43CFCEAA42DCE35F0FDE43CFC2213
:100CDE00EB9FF5F0EA9E42F0E99D42F0E89C45F06C
:010CEE0022E3
:100CEF00E8600FECC313FCED13FDEE13FEEF13FFE3
:030CFF00D8F12207
:0C0D0200ECF0A3EDF0A3EEF0A3EFF02264
:10177600020A3EE493A3F8E493A34003F68001F241
:1017860008DFF48029E493A3F85407240CC8C33374
:10179600C4540F4420C8834004F456800146F6DF43
:1017A600E4800B0102040810204080900630E47E9D
:1017B600019360BCA3FF543F30E509541FFEE49338
:1017C600A360010ECF54C025E060A840B8E493A3FF
:1017D600FAE493A3F8E493A3C8C582C8CAC583CA2A
:1017E600F0A3C8C582C8CAC583CADFE9DEE780BEE2
:01084B0000AC
:100D0E00BC000BBE0029EF8DF084FFADF022E4CCC9
:100D1E00F875F008EF2FFFEE33FEEC33FCEE9DEC92
:100D2E00984005FCEE9DFE0FD5F0E9E4CEFD22EDD8
:100D3E00F8F5F0EE8420D21CFEADF075F008EF2F22
:100D4E00FFED33FD4007985006D5F0F222C398FD13
:050D5E000FD5F0EA22B0
:00000001FF
